:020000040800F2
:1000000000500020150200081B0200081F02000813
:100010003502000839020008510200080000000003
:10002000000000000000000000000000690200085D
:100030006D0200080000000071020008650C000855
:100040008502000885020008850200088502000874
:100050008502000885020008850200088502000864
:100060008502000885020008850200088502000854
:1000700085020008D10700088502000885020008F3
:1000800085020008050D0008A50B00088502000880
:100090008502000885020008850200088502000824
:1000A0008502000885020008850200088502000814
:1000B0008502000885020008850200088502000804
:1000C00085020008850200088502000885020008F4
:1000D00085020008C5100008850200088502000896
:1000E0008502000885020008850200080000000063
:1000F0000000000000000000000000000000000000
:1001000000000000000000005FF808F107B500F0F3
:1001100003FA2E4B2E492F4A2F4C30480B601360A8
:100120002F4DA84204D254F8045F40F8045BF7E76F
:1001300008682C49884203D111682B4A914200D0AB
:10014000FEE72A492A4A0B6013602A4B2A48834259
:1001500003D2002043F8040BF8E70B680BB91468CE
:1001600004B1FEE700F0E4F901A9684600F0C8F91F
:10017000224B234D1E46ED1AAD10A54204DD56F864
:10018000243098470134F8E71E4B1F4C1E46E41AF2
:10019000A4100025AC4204DD56F8253098470135FF
:1001A000F8E79DE8030001F07FFD184B06461D4669
:1001B000174CE41AA410002C04DD013C55F824303F
:1001C0009847F8E7304600F095F900BFBABADECAA2
:1001D00000000020840000205835000800000020A6
:1001E0008800002078563412325476988800002017
:1001F00068090020880000206C090020B002000877
:10020000B0020008B0020008C0020008C0020008E6
:10021000C402000808B5FFF779FF00BEFEE71EF034
:10022000040F0CBFEFF30880EFF309807146124A08
:100230001047FEE700BEFEE71EF0040F0CBFEFF311
:100240000880EFF3098071460C4A104700BEFEE7B4
:100250001EF0040F0CBFEFF30880EFF30980714626
:10026000074A104700BEFEE700BEFEE700BEFEE7FD
:1002700000BEFEE770470000330200084D02000890
:080280006502000800BEFEE764
:100288005C35000800000020880000205C3500086C
:100298000000000000000000880000206C09002019
:1002A8000000000000000000610B00080D0C0008B1
:0C02B8002D0D0008A93100081D330008BE
:1002C400F8B5464B044698420D461BD003F58063AF
:1002D400984217D003F58063984213D003F58063E6
:1002E40098420FD003F5806398420BD003F58063E6
:1002F400984207D003F58063984203D0B22138486E
:1003040000F004F9EB781C2B63D8364ADA40D207A4
:1003140005D4482B03D0B321314800F0F7F82B88DB
:100324001BB9B4212E4800F0F1F8EB7803F00F0666
:10033400DB0601D4334609E0AA78013A022A03D93C
:10034400BB21274800F0E2F8AB7833432E8816F03F
:10035400FF0F1CD0226800210120884030EA0607E4
:1003640011D18F004FF00F0E0EFA07FE22EA0E0293
:1003740003FA07F73A43EF78282F01D1606102E0CE
:10038400482F08BF206101310829E5D12260FF2EE2
:1003940022D96268002101F108070120B84030EA3F
:1003A400060711D18F004FF00F0E0EFA07FE22EA56
:1003B4000E0203FA07F73A43EF78282F01D1606160
:1003C40002E0482F08BF206101310829E3D16260AF
:1003D400F8BD282B9DD1A2E7F8BD00BF000801405D
:1003E400E03300081100111138B5154B044698424A
:1003F4000D461CD003F58063984218D003F5806342
:10040400984214D003F58063984210D003F58063BA
:1004140098420CD003F58063984208D003F58063BA
:10042400984204D040F26911064800F06FF825B9EB
:100434004FF4B571034800F069F8256138BD00BF79
:1004440000080140E033000838B5154B04469842D3
:100454000D461CD003F58063984218D003F58063E1
:10046400984214D003F58063984210D003F580635A
:1004740098420CD003F58063984208D003F580635A
:10048400984204D040F27911064800F03FF825B9AB
:100494004FF4BD71034800F039F8656138BD00BF01
:1004A40000080140E03300080E4B70B503400546D8
:1004B4000E4603B920B940F24A410B4800F026F831
:1004C400012E0A4C05D940F24B41074800F01EF8B2
:1004D40000E016B1A3691D4302E0A36923EA050500
:1004E400A56170BD0200C0FF113400080010024075
:1004F400FEE708B50120FFF7FBFF000001230360BE
:10050400014B0B60704700BF0400002008B5FFF7E3
:10051400F0FF000008B500F00BF8024B024A9A60A5
:1005240008BD00BF00ED00E00000000800F07AB84C
:10053400384B82B01A6842F001021A605968364A90
:100544000A405A601A6822F0847222F480321A60D7
:100554001A6822F480221A605A6822F4FE025A6051
:100564004FF41F029A600022009201921A6842F42A
:1005740080321A601A6802F400320192009A013241
:100584000092019A1AB9009AB2F5A06FF2D11A68D2
:1005940012F4003218BF01220192019A012A05D0F7
:1005A4001E4B4FF000629A6002B070471C4A1168FB
:1005B40041F010011160116821F00301116011680C
:1005C40041F0010111605A685A605A685A605A68C9
:1005D40042F480625A605A6822F47C125A605A6863
:1005E40042F488125A601A6842F080721A601968DC
:1005F400084A8901FBD5516821F003015160516813
:1006040041F0020151605A6802F00C02082AFAD142
:10061400C6E700BF001002400000FFF800ED00E054
:1006240000200240114A124B516801F00C010429C8
:1006340001D0082901D00F490EE051685068C1F378
:100644008341C00301F1020102D55068800301D542
:10065400094800E007484143196052680749C2F35A
:100664000312895C1A68CA401A607047001002407D
:100674001C00002000127A0000093D000C0000203C
:100684004FF0FF3303650346416500F1500200213A
:1006940043F8041B9A42FAD1704749B1002350F839
:1006A400232012B940F8231004E00133142BF6D1AF
:1006B4004FF0FF331846704708B5036D0146013308
:1006C400132BC8BF00230365036D50F8233043B9CF
:1006D40051F8230008B10B6503E00133142BF7D163
:1006E40008BD0B6D51F8230003689B6898470120EF
:1006F40008BD000037B50C4C01211020FFF7D4FED3
:1007040003234FF400558DF8063001A91023204629
:100714008DF80730ADF80450FFF7D2FD2946204686
:10072400FFF762FE03B030BD001001407047704710
:1007340010B50446082102F0F7FD204610BD10B59F
:100744000446EC2102F0F0FD204610BD0A4A9369EC
:1007540043F480539361094B00221A809A801D222E
:100764001A809A8892B242F006029A801A8892B24B
:1007740042F040021A8070470010024000300140ED
:100784000F4A536943F0010353610E4B00221A6070
:100794001A6842F4025242F012021A600C225A60A1
:1007A40002F1804202F598329A60074B602283F886
:1007B4000D234FF40052C3F880211A60704700BF24
:1007C400001002403000024000E100E037B5644D03
:1007D4004FF400522B69634C43F008032B61624BC6
:1007E400C3F88021614A536843F480735360604BBB
:1007F4001A6822F001021A60D4F8E820002A40F3B3
:100804009880D4F8E82094F8E010013AC4F8E8207D
:1008140094F8E12084F8E1100C2184F8E02001FB35
:10082400024208325960DA601A68616842F00102D3
:100834001A600B6868469B68984794F8E120602327
:100844005A432032A318A1589DF80520D2110A60FA
:100854009DF80520596892110A609DF80520996851
:1008640052110A609DF80520D96812110A609DF89A
:1008740005201969D2100A609DF805205969921063
:100884000A609DF80520996952100A609DF80510C8
:10089400DA6911609DF80420196AD2110A609DF882
:1008A4000420596A92110A60996A9DF80420521131
:1008B4000A609DF80420D96A12110A609DF8042088
:1008C400196BD2100A609DF80420596B92100A60CB
:1008D4009DF80420996B52100A609DF80410DA6B9D
:1008E40011609DF80620196CD2110A609DF806204B
:1008F400596C92110A609DF80620996C52110A6095
:100904009DF80620D96C12110A609DF80620196D15
:10091400D2100A60596D9DF8062092100A609DF865
:100924000620996D52100A60DB6D9DF806201A604E
:100934000FE00123C4F8E4302B6943F400232B6156
:1009440000BF00BF00BF00BF00BF2B6943F0080316
:100954002B612B6943F400232B6103B030BD00BF2E
:10096400000801409000002000E100E00000024087
:100974003000024070B5002260210C2501FB020109
:100984005543002405F160430833234403445B01C9
:1009940003F1085303F1180608334B620C2303FBDD
:1009A4000203234401340E620C2C4FF088061E729D
:1009B40001F10801E6D10132022ADDD170BD000047
:1009C40030B5054690F8E03085B08DF8043090F8E5
:1009D400E13000248DF805306968D1F82027D1F87A
:1009E4001C379A427FD20B6802A89B68984701ABD8
:1009F400E25C60235A433F4920328B1889589DF8A2
:100A04000D20D2110A609DF80D20596892110A60D8
:100A14009DF80D20996852110A609DF80D20D9683F
:100A240012110A609DF80D201969D2100A609DF810
:100A34000D20596992100A609DF80D209969521091
:100A44000A609DF80D10DA6911609DF80C20196A8E
:100A5400D2110A609DF80C20596A92110A60996AB1
:100A64009DF80C2052110A609DF80C20D96A1211CD
:100A74000A609DF80C20196BD2100A609DF80C20B6
:100A8400596B92100A609DF80C20996B52100A6001
:100A94009DF80C10DA6B11609DF80E20196CD211C0
:100AA4000A609DF80E20596C92110A609DF80E2080
:100AB400996C52110A609DF80E20D96C12110A60CB
:100AC4009DF80E20196DD2100A60596D9DF80E2004
:100AD40092100A609DF80E20996D52100A60DB6D29
:100AE4009DF80E201A600134022C7FF475AF05B016
:100AF40030BD00BF90000020F8B5D0F8E4400646B1
:100B0400012C0F460AD1134A138903F002039BB246
:100B140023B1158905F08005ADB20DB10020F8BDF3
:100B2400FFF74EFF0C4B013F1A680C2022F0010224
:100B34001A60C6F8E450C6F8E870586096F8E020E9
:100B440000FB02600830D8601A68204642F00102B7
:100B54001A60F8BD003001403000024010B50D4B62
:100B64000D4C012223600D4B204663600023C4F822
:100B7400E42084F8E03084F8E120C4F8E830FFF79A
:100B8400F9FE2046FFF7E2FD2046BDE81040FFF7DE
:100B9400F7BD00BF4C3400089000002098010020ED
:100BA40030B5174B9C68E16CDA7C0E2A0BD9002215
:100BB400DA749A7C0132D2B29A749A7C022A02D9EB
:100BC40001225A6113E0DD7C9A7CC1F34121043295
:100BD40003EB42029088A940014389B29180DA7CF8
:100BE4000232D2B2DA74A26842F00102A260012297
:100BF4005A61044B4FF48022C3F8802130BD00BFFA
:100C04007C01002000E100E00F4B002210B59A7433
:100C1400DA745A610D4A198898889A60DA885C886F
:100C240080F0610081F0FF010132414092B284F012
:100C34000304DA804A40A11889B200EB51001A80FB
:100C4400424059809A8010BD7C010020002401405C
:100C5400024B18601A68002AFCD1704794010020E6
:100C6400034B1A6812B11A68013A1A60704700BF40
:100C740094010020704700000023037143718371C5
:100C84000C4BD1F820270360D1F81C379A4210D2BC
:100C9400D1F820371B780371D1F820375B78437182
:100CA400D1F820379B788371D1F820370333C1F80A
:100CB400203770476034000810B5044640F23471A0
:100CC40002F032FB204610BD10B5A1B10A4C606998
:100CD40040F001006061094800240460046844F4A1
:100CE400814444F04204046041608260C36003684C
:100CF40043F00103036010BD001002408000024075
:100D0400074B0122C3F82C27064B4FF40032C3F8DB
:100D1400802102F18042536843F08073536070472E
:100D24009801002000E100E0154B164A16491A60AC
:100D340003F56272C3F80C271A1DC3F81027C3F811
:100D44001427C3F81827C3F8241700220121C3F875
:100D54002027C3F81C2783F8282783F8292783F83A
:100D64002A27C3F82C17C3F8302762B6074B702222
:100D740083F811234FF40032C3F880211A607047BE
:100D840098010020703400086034000800E100E09D
:100D9400426A836A9A420AD0836A03F01F030344B7
:100DA4001B790B70836A0133836201207047002032
:100DB4007047036853F8183C1844E9E7426A806AAC
:100DC400131A584258417047036853F8243C0344AB
:100DD400586A9B6AC31A5842584170477047704713
:100DE40070477047704770477047002383624362BF
:100DF4007047036853F8103C18440023836243622D
:100E040070471F2070471F207047436A806A013370
:100E140000F01F0003F01F031B1A5842584170478B
:100E2400036853F8203C1844EFE738B504460D46F0
:100E3400FFF7EBFF48B9636A012003F01F03234463
:100E44001D71636A0133636238BD002038BD0368D5
:100E540053F8143C1844E8E710B504460C2102F09A
:100E640063FA204610BD10B504460C2102F05CFA6A
:100E7400204610BD10B504460C2102F055FA204658
:100E840010BD10B50446142102F04EFA204610BDE0
:100E940010B504460C2102F047FA204610BD10B5E7
:100EA40004460C2102F040FA204610BD10B5044659
:100EB4000C2102F039FA204610BD03798B422CBF75
:100EC4005B1A002303714379994294BF5B1A002390
:100ED40043718379994295BF591A002381718371B3
:100EE400704700000023034A8821D15401330C2B9E
:100EF400F9D170473C0900202F4B10B51B68CC1169
:100F04001C602E4B8C111B681C602D4B4C111B68F4
:100F14001C602C4B0C111B681C602B4BCC101B68E9
:100F24001C602A4B8C101B681C60294B4C101B68DE
:100F34001C60284B1B681960274BC1111B68196082
:100F4400264B81111B681960254B41111B681960E0
:100F5400244B01111B681960234BC1101B681960D5
:100F6400224B81101B681960214B41101B681960CA
:100F7400204BD1111B6818601F4B1B6819601F4B55
:100F840091111B6819601E4B51111B6819601D4B90
:100F940011111B6819601C4BD1101B6819601B4B85
:100FA40091101B6819601A4B51101B681960194B7A
:100FB4001B681A6010BD00BFF80800205809002003
:100FC400D8080020D4080020D0080020CC08002035
:100FD400600900205C090020F4080020F0080020CB
:100FE400EC080020E8080020E4080020E0080020C5
:100FF400DC08002028090020500900204C090020AA
:101004004809002054090020380900203409002030
:10101400300900202C090020104A936943F00D0385
:1010240093610F4B1A6802F470221A605A6822F016
:10103400F0025A6019680B4A0A431A605A6842F06F
:10104400B0025A60084AC3F800244FF02232C3F8B1
:1010540004240022C3F80C24704700BF001002408F
:10106400000801400434B0B42422242262B6114B97
:10107400702283F825232022C3F884215A600E4A63
:101084000021936943F4804393610C4B19811A89BD
:1010940092B242F41C6242F004021A8119829982CB
:1010A40099819A8992B242F4025242F008029A81DA
:1010B400704700BF00E100E000100240003801402A
:1010C40007B50C480DF10701FFF762FE0A4A18B193
:1010D4009DF80730938005E0938923F080031B0477
:1010E4001B0C9381054B2022C3F8842103B05DF8C7
:1010F40004FB00BFFC0800200038014000E100E0D0
:10110400C3888288013399B20388C18053404B401D
:1011140041889BB2194489B202EB510203805340C7
:101124009BB2418083801846704738B504460568F1
:101134004068FFF7E5FFDC23B0FBF3F202FB13008A
:10114400287160682568FFF7DBFFB423B0FBF3F276
:1011540002FB1300687160682568FFF7D1FFA8716E
:1011640038BD2DE9F8434F6D14463846FFF7C8FFE4
:10117400C6B281463846FFF7C3FFC5B2804638463B
:10118400FFF7BEFFC6EBC602D2102273C5EBC50241
:10119400C3B2D2106273C3EBC302D210A27306228D
:1011A40002FB06F1C910217502FB05F15A43C9106F
:1011B400D2106175A275092106EB860292FBF1F249
:1011C400227705EB850292FBF1F2627703EB83024F
:1011D40092FBF1F2A27706EB4602D21084F82420A7
:1011E40005EB4502D21084F8252003EB4302D2100C
:1011F40084F82620052296FBF2F184F82C1095FB46
:10120400F2F193FBF2F284F82E200A2284F82D10D6
:1012140096FBF2F102FB116695FBF2F102FB11550C
:1012240093FBF2F102FB113384F8049084F80580F7
:10123400A07184F8346084F8355084F83630BDE801
:10124400F88301EB410102EB420289B292B230B55C
:10125400541A002C30DDB2F5617F2DD8D0F82C471C
:10126400012CFBD1D0F81047D0F814572D1BA942FC
:10127400BCBF6518C0F81457D0F81857A8BFC0F8F9
:1012840014472D1BAA4204DD002DA4BFA418C0F8E6
:101294001847914210D21D79D0F810476554D0F800
:1012A40010475D790C446570D0F810479D790C4463
:1012B4000331A57089B2ECE730BD2DE9F74F1E4626
:1012C40003F1080703F1100803F118092033009310
:1012D40005460C4606F1280A06F130030D2A00F2F1
:1012E400D981DFE812F00E001000150021002D0056
:1012F4004300590079009A00C500F00025015A0105
:101304009601621C00E0A21C334692B22146BEE163
:1013140004F101081FFA88F842463B4621468068DA
:10132400FFF78FFFE21CAFE104F102081FFA88F80F
:1013340042463B4621468068FFF783FF221DA3E116
:1013440004F1010943461FFA89F904F103084A46E6
:10135400214680681FFA88F8FFF773FF42463B4630
:101364004946A868FFF76DFF621D8DE104F102098B
:1013740043461FFA89F904F104084A462146806865
:101384001FFA88F8FFF75DFF42463B464946A868C6
:10139400FFF757FFA21D77E104F1010A1FFA8AFA49
:1013A4004B4652462146806804F10309FFF749FF82
:1013B4001FFA89F9434604F105084A465146A868CC
:1013C4001FFA88F8FFF73DFF42463B464946A868A6
:1013D400FFF737FFE21D57E104F1020A1FFA8AFA08
:1013E4004B4652462146806804F10409FFF729FF61
:1013F4001FFA89F9434604F106084A465146A8688B
:101404001FFA88F8FFF71DFF42463B464946A86885
:10141400FFF717FF04F1080236E104F1010A1FFA8D
:101424008AFA04F1030B009B5246214680681FFA96
:101434008BFBFFF706FF4B465A465146A86804F15A
:101444000509FFF7FEFE1FFA89F9434604F1070870
:101454004A465946A8681FFA88F8FFF7F2FE424642
:101464003B464946A868FFF7ECFE04F109020BE18C
:1014740004F1020A1FFA8AFA04F1040B009B524693
:10148400214680681FFA8BFBFFF7DBFE4B465A466A
:101494005146A86804F10609FFF7D3FE1FFA89F93B
:1014A400434604F108084A465946A8681FFA88F8D2
:1014B400FFF7C7FE42463B464946A868FFF7C1FE10
:1014C40004F10A02E0E004F1010B1FFA8BFB53461E
:1014D4005A462146806804F1030AFFF7B2FE1FFA58
:1014E4008AFA594604F1050B009B5246A8681FFA74
:1014F4008BFBFFF7A6FE4B465A465146A86804F1FB
:101504000709FFF79EFE1FFA89F9434604F109080B
:101514004A465946A8681FFA88F8FFF792FE4246E1
:101524003B464946A868FFF78CFE04F10B02ABE08A
:1015340004F1020B1FFA8BFB53465A46214680687E
:1015440004F1040AFFF77DFE1FFA8AFA594604F1F2
:10155400060B009B5246A8681FFA8BFBFFF771FE2F
:101564004B465A465146A86804F10809FFF769FE3C
:101574001FFA89F9434604F10A084A465946A868FD
:101584001FFA88F8FFF75DFE42463B464946A868C5
:10159400FFF757FE04F10C0276E0621C04F1030B22
:1015A40092B21FFA8BFB214680680192FFF749FE35
:1015B40053465A460199A86804F1050AFFF741FE0B
:1015C4001FFA8AFA594604F1070B009B5246A86891
:1015D4001FFA8BFBFFF735FE4B465A465146A86867
:1015E40004F10909FFF72DFE1FFA89F9434604F1B6
:1015F4000B084A465946A8681FFA88F8FFF721FEE7
:1016040042463B464946A868FFF71BFE04F10D021B
:101614003AE0A21C04F1040B92B21FFA8BFB2146A0
:1016240080680192FFF70DFE53465A460199A86857
:1016340004F1060AFFF705FE1FFA8AFA594604F177
:10164400080B009B5246A8681FFA8BFBFFF7F9FDB5
:101654004B465A465146A86804F10A09FFF7F1FDC2
:101664001FFA89F9434604F10C084A465946A8680A
:101674001FFA88F8FFF7E5FD42463B464946A8684D
:10168400FFF7DFFD04F10E023346414692B2A8682B
:10169400FFF7D7FD03B0BDE8F08F00002DE9F3415B
:1016A40005461E460A4494B20023A4F10D072C4AB1
:1016B400BFB28DF804308DF805308DF80630A4F1F2
:1016C4000E0102AB43F8082D89B23A468068A4F1B2
:1016D4000B08FFF7B6FD1FFA88F83946A4F109078D
:1016E40006F130034246A868BFB2FFF7AAFD06F12F
:1016F40028033A464146A868A4F10708FFF7A1FD6C
:101704001FFA88F83946671F06F120034246A86885
:10171400BFB2FFF796FD06F118033A464146A868A2
:10172400A4F10308FFF78DFD1FFA88F83946671EF8
:1017340006F110034246A868BFB2FFF782FD06F126
:1017440008033A464146A868FFF77BFD621C33460E
:1017540092B23946A868FFF774FD02B0BDE8F08183
:10176400603400082DE9F04F9B4687B0083302939C
:101774001C3A0BF11003019393B219448CB20393F6
:10178400C64A002304F10F068DF814308DF8153085
:101794008DF81630B6B206AB04F10E0143F8082DED
:1017A4000546324689B28068FFF74BFD039B0BF177
:1017B400180A0BF120090BF128080BF130070C2B48
:1017C40000F29681DFE813F00D0048007A00AD00C6
:1017D400D500FE001D013D0153016C017901890111
:1017E4008C0104F111039BB20393314604F11306F7
:1017F4003B46B6B2039AA868FFF723FD04F1150728
:10180400324643460399A868FFF71BFDBFB2314631
:1018140004F117063A46B6B24B46A868FFF711FD25
:10182400324639465346A86804F11907FFF709FD03
:10183400BFB2314604F11B06019B3A46A868B6B212
:10184400FFF7FFFC029B32463946A868FFF7F9FC14
:1018540004F11C025B4646E104F1110B31461FFA08
:101864008BFB04F113063B46B6B25A46A86804F152
:101874001507FFF7E6FCBFB2434632465946A8684F
:1018840004F11708FFF7DDFC1FFA88F831464B46D0
:101894003A46A86804F11906FFF7D3FCB6B25346DA
:1018A40042463946A868FFF7CCFC3246019B4146C4
:1018B400A868FFF7C6FC04F11B0230E004F1110B29
:1018C40031461FFA8BFB04F113063B46B6B25A4667
:1018D400A86804F11507FFF7B4FCBFB243463246CB
:1018E4005946A86804F11708FFF7ABFC1FFA88F8FB
:1018F40031464B463A46A86804F11906FFF7A1FCA5
:10190400B6B2534642463946A868FFF79AFC3246B7
:10191400019B4146A868FFF794FC04F11A02029B5C
:10192400E1E004F1110B31461FFA8BFB04F11306BD
:101934003B46B6B25A46A868FFF783FC04F1150784
:10194400324643465946A868FFF77BFCBFB231468E
:1019540004F117064B463A46A868B6B2FFF771FC85
:10196400324653463946A868FFF76BFC04F1190266
:1019740026E004F1110B31461FFA8BFB04F1130628
:101984003B46B6B25A46A868FFF75BFC04F115075C
:10199400324643465946A868FFF753FCBFB2314666
:1019A40004F117064B463A46A868B6B2FFF749FC5D
:1019B400324653463946A868FFF743FC04F118023F
:1019C400019B90E004F1110B3B461FFA8BFB04F1E1
:1019D400130731465A46A868BFB204F11506FFF74B
:1019E40030FCB6B243463A465946A868FFF729FC8C
:1019F40032464B463946A868FFF723FC04F1170228
:101A04001DE004F1110B3B461FFA8BFB04F1130795
:101A140031465A46A868BFB204F11506FFF711FC17
:101A2400B6B243463A465946A868FFF70AFC32461E
:101A34004B463946A868FFF704FC04F116025346E6
:101A440051E004F1110A31461FFA8AFA04F113062F
:101A54003B465246A868B6B2FFF7F3FB324643460C
:101A64005146A868FFF7EDFB04F1150214E004F1F8
:101A7400110A31461FFA8AFA04F113063B4652460C
:101A8400A868B6B2FFF7DDFB324643465146A86864
:101A9400FFF7D7FB04F114024B4624E0603400083E
:101AA40004F111091FFA89F94A463B463146A868F0
:101AB400FFF7C7FB04F113020BE004F111091FFA4D
:101AC40089F94A463B463146A868FFF7BAFB04F158
:101AD4001202434692B2494607E004F1110201E0C2
:101AE40004F110023B46314692B2A868FFF7A9FB05
:101AF40007B0BDE8F08F00BF10B514461288292A3C
:101B04000ED80D2A02D8FFF7D8FB06E01B2A02D80C
:101B1400FFF7C4FD01E0FFF725FE2388013323808E
:101B240010BD70B50D4616460446018833464A1E5C
:101B3400023992B289B22846FFF783FB21883346E3
:101B4400CA1C023192B289B22846FFF77AFB2346B7
:101B540033F8081B28468A1C013992B289B2FFF770
:101B640070FB227923680AB1013300E0013B236052
:101B74002368043BB3F5927F08D982F001032371F3
:101B84000BB1052301E040F22713236070BD000070
:101B940007B5094A02AB002143F8082D4FF49672A9
:101BA4008DF804108DF805108DF80610FFF749FB29
:101BB40003B05DF804FB00BF603400089142F0B547
:101BC4003BD9C3B301EB410103EB430389B29BB29D
:101BD400CD1A002D31DD02EB420292B2D31A002B52
:101BE4002BDB2C468A1A93B28A1C9442D0F81067D5
:101BF40004DC375DE21AB7540134F5E7D0F8141762
:101C0400EA1A891B914205DD002903DD3244C0F83C
:101C1400142701E0C0F81467D0F81827611E921B3E
:101C2400C91A8A420BDA002A09DBDA43131933444E
:101C3400C0F8183703E01846F0BD0020F0BD0120BD
:101C4400F0BD0000154B9A6942F400729A6162B6C5
:101C5400134A702182F812134FF48021C2F88011C4
:101C640011605A68002142F400425A605A6822F412
:101C740080425A60836859605A6842F490725A608C
:101C8400996000BF00BF00BF1A6942F028021A61C0
:101C94005A6B42F001025A63704700BF00100240C1
:101CA40000E100E010B5B2B032AB002143F8BC1D36
:101CB4005B0103F1085305220A2002244FF0010EB0
:101CC40083E81540484B4FF47A721B68B3FBF2F378
:101CD400013BB3F1807F08D2444AF0205360444B67
:101CE40083F8230007239160136002A8FEF702FD26
:101CF400FFF792F9FFF7BAF9FFF7F4F8042202218B
:101D040001203C4CFFF7F8F83B4B3C491CA8C4F8B5
:101D14003037FEF7B5FC3A4A01AB0592394A0693CF
:101D24000892394A09930B92384A0C931792384A0D
:101D340018930F930E921293364A1593364B0BA9B0
:101D44001CA81192149307940A940D941994109456
:101D540013941694FEF7A1FC11A91CA8FEF79DFC90
:101D64000EA91CA8FEF799FC17A91CA8FEF795FC60
:101D740005A91CA8FEF791FC08A91CA8FEF78DFC78
:101D840014A91CA8FEF789FC00241C48ADF80A40DD
:101D9400FFF758FF0494049B012B08DC1748FFF756
:101DA400AFF9ADF80A00049B01330493F3E7BDF8DF
:101DB4000A3003339BB2ADF80A301CA8FEF77CFC52
:101DC400C820FEF745FF4FF400511448FEF73CFBD2
:101DD4003220FEF73DFF4FF400511048FEF704FB9C
:101DE4006420FEF735FFE8E71C00002010E000E067
:101DF40000ED00E098010020900000207C0100200C
:101E0400883400089C340008B0340008C434000846
:101E1400D8340008EC3400080035000800100140F4
:101E2400D0F8303770B504460BB9002070BDD3F834
:101E3400E430002BF9D0D0F81427D0F81817002379
:101E4400D0F81057891A9942C0F82C37A2EB05052F
:101E5400EBDDD4F80C3726682B44F66889B2B0471A
:101E6400D4F81837D4F81027C4F81C37D4F80C3732
:101E7400002DC8BFED18C4F82027C4F81037C4F8E3
:101E84000C27CCBFC4F81457C4F81437C4F8183757
:101E9400D4F83007D4F82017D4F81C3702685B1A3A
:101EA4000321926893FBF1F190470028F0D00120C0
:101EB40070BD00002DE9F0414E6D8AB004AD0446BA
:101EC4000FCE0FC5844F96E80300B42385E80300C2
:101ED40000258DF804308DF805508DF806500097D4
:101EE4004FF4C87604A8FFF70BF9C0F30808B8F557
:101EF400957FF7D804A8FFF703F9E623B0FBF3F2C4
:101F040002FB13008DF8040004A8FFF7F9F8C823B6
:101F1400B0FBF3F202FB13008DF8050004A8FFF7F1
:101F2400EFF87823B0FBF3F202FB130041468DF87F
:101F340006006B4608F10102A068FFF782F9A06869
:101F4400FFF76EFF0028FAD00A20FEF781FE002377
:101F54008DF804308DF805308DF8063004A8FFF7AD
:101F6400CFF8C0F30801B1F5957FF7D86B464A1C4A
:101F7400A068FFF766F9A068FFF752FF0028FAD0BF
:101F84000F20FEF765FE013EACD18DF804608DF89C
:101F940005608DF806604FF4C87604A8FFF7B0F822
:101FA400C0F30801B1F5957FF7D86B464A1CA068C9
:101FB400FFF747F9A068FFF733FF0028FAD00F2096
:101FC400FEF746FE013EE8D104A8FFF799F8C0F3F6
:101FD4000800B0F5957FF7D805238DF80C308DF8FF
:101FE4000D308DF80E300297002602AB40F22B1212
:101FF4000021A068FFF725F9A068FFF711FF00286A
:10200400FAD00820FEF724FE3DB9F3B28DF80E3065
:102014008DF80D308DF80C3010E0012D4FF00003D9
:1020240003BF8DF80E308DF80C308DF80D608DF8EF
:102034000D301CBF8DF80C308DF80E600536B92EAE
:10204400D3D1B42602AB4FF496720021A068FFF7F7
:10205400F8F8A068FFF7E4FE0028FAD00820FEF79D
:10206400F7FD3DB9F3B28DF80E308DF80D308DF8D3
:102074000C3010E0012D4FF0000303BF8DF80E303B
:102084008DF80C308DF80D608DF80D301CBF8DF877
:102094000C308DF80E60053E731DD3D1002102ABC8
:1020A4004FF49672A0688DF80C108DF80D108DF811
:1020B4000E10FFF7C6F8A068FFF7B2FE0028FAD0AA
:1020C4004FF4FA700135FEF7C3FD032D7FF408AF1A
:1020D4000AB0BDE8F08100BF603400082DE9F04F7C
:1020E400044697B04E6D10AD0FCE0FC596E80300B1
:1020F40085E80300C44D16AB002143F8505D40F25F
:102104002B12A0688DF80C108DF80D108DF80E10A0
:10211400FFF797F8A068FFF783FE0028FAD0F023B2
:102124008DF80D308DF80E308DF80C30D2238DF8EB
:1021340014308DF815308DF81630B4238DF81C301A
:102144008DF81D308DF81E3078238DF824308DF8ED
:1021540025308DF826303C238DF82C308DF82D3029
:102164008DF82E3014230495069508950A958DF85C
:1021740034308DF835308DF836300C954FF0000A38
:102184004FF0010BBBF1000F00F0D5800627BEB263
:10219400A6F105081FFA88F8B11F42460CAB89B2B4
:1021A400A068A6F10409FFF74CF81FFA89F9414623
:1021B400A6F103084A461FFA88F80AABA068FFF79D
:1021C40040F84246494608ABA068A6F10209FFF769
:1021D40038F81FFA89F9414606F1FF3806AB4A463A
:1021E400A0681FFA88F8FFF72CF804AB424649466A
:1021F400A068FFF726F802AB32464146A068FFF715
:1022040020F8A068FFF70CFE0028FAD0142001374C
:10221400FEF71EFDB7F5937F4FF00003A0680FD0C3
:10222400B9B24A1F06398DF83C308DF83D308DF82F
:102234003E3092B20EAB89B20E95FFF702F8A6E7D4
:102244008DF83C308DF83D308DF83E3040F22B1245
:102254000EAB40F225110E95FEF7F3FFA068FFF7D1
:10226400DFFD0028FAD002200AF1010AFEF7F0FC93
:10227400BAF1140F8BF0010B00F0C38010A8FEF725
:102284003FFF8DF80C0010A8FEF73AFF8DF80D0003
:1022940010A8FEF735FF9DF80C20062602EB820CF1
:1022A4009CFBF6F19DF80D30C0B203EB830E00EBFE
:1022B40080078DF814109EFBF6F197FBF6F68DF867
:1022C40015108DF816600921C2EBC20696FBF1F6D3
:1022D4008DF81C60C3EBC30696FBF1F68DF81D6008
:1022E400C0EBC00696FBF1F69CFBF1FC9EFBF1FEF5
:1022F40097FBF1F18DF8261003218DF81E6092FBF7
:10230400F1F68DF82C6093FBF1F690FBF1F18DF86A
:102314000E0092089B0880088DF824C08DF825E0F3
:102324008DF82D608DF82E108DF834208DF8353011
:102334008DF8360026E740F22717BEB2731C9BB215
:102344000193019A02AB3146A068FEF77AFF731D30
:102354009BB206F104081FFA88F8009341460CABBF
:10236400009AA06806F10309FEF76BFF1FFA89F9CA
:10237400424606F102080AAB4946A0681FFA88F8EB
:10238400FEF75FFF08AB4A464146A068FEF759FFD7
:1023940006AB42460199A068FEF753FF40F22713AB
:1023A4009F420FD000238DF83C308DF83D308DF8DE
:1023B4003E30B21D16AB43F8205D92B20099A0687E
:1023C400FEF73FFFA068FFF72BFD0028FAD00A2094
:1023D400FEF73EFC17F1FF37AFD2002116AB8DF8A4
:1023E4003C108DF83D108DF83E10052243F8205D19
:1023F400A068FEF726FFA068FFF712FD0028FAD0B8
:1024040031E717B0BDE8F08F603400082DE9F04FD4
:102414004E6D95B00EAD04460FCE0FC5C8223C23B9
:102424008DF806207D4A8DF80430002396E80300D9
:102434008DF805308DF80C308DF80D308DF80E3098
:102444008DF814308DF815308DF816308DF81C3059
:102454008DF81D308DF81E308DF824308DF8253020
:1024640085E8030000920292049206928DF82630C9
:102474008DF82C308DF82D308DF82E300EAB08925F
:102484000A92CDF830D00D930A260CA8FEF74DFE23
:102494009DF804100925C1EBC10090FBF5F09DF8EF
:1024A40005208DF82400C2EBC20090FBF5F09DF8E6
:1024B40006308DF82500C3EBC30090FBF5F006252C
:1024C4008DF82600880090FBF5F08DF81C00900034
:1024D40090FBF5F08DF81D00980090FBF5F08DF859
:1024E4001E0003208DF80C108DF80D208DF80E3091
:1024F400B1FBF0F1B2FBF0F2B3FBF0F38DF8141082
:102504008DF815208DF816304FF495774FF00208AA
:102514004FF00C0A40F22D111FFA88FB0BF1FF3922
:102524001FFA89F988453BB20FFA89F26FD0474503
:1025340005D10CA8FEF7F9FD4FF0060A3BE09A42DC
:1025440039DD022102A8FEF7B8FC012104A8FEF738
:10255400B4FC022106A8FEF7B0FC022108A8FEF78D
:10256400ACFC02AB99229421A068FEF76AFE08AB8A
:1025740094229121A068FEF764FE08AB9C22992165
:10258400A068FEF75EFE06AB91228E21A068FEF7DE
:1025940058FE06AB9F229C21A068FEF752FE04ABB6
:1025A4008E228B21A068FEF74CFE04ABA2229F2151
:1025B400A068FEF746FEBDB2C5F595714A460AAB62
:1025C40089B2A068FEF73DFE494605F101096B4654
:1025D4005A46A0681FFA89F9FEF733FE6B464A464D
:1025E4002946A068FEF72DFEAA1C0AAB92B2494602
:1025F400A068FEF726FEA068FFF712FC0028FAD0B8
:102604005046FEF725FB08F10108013F82E7013E31
:102614007FF43BAF15B0BDE8F08F00BF6034000815
:102624002DE9F0470446C0B04F6D02AE0D460FCF02
:102634000FC6D54B97E803004FF0C80C4FF0AD0E12
:102644008C270A2286E803004A206B261F218DF876
:1026540044008DF845008DF824C08DF825C08DF810
:1026640026C008938DF82CE08DF82DE08DF82EE02F
:102674000A938DF834708DF835708DF836700C939C
:102684008DF83C608DF83D608DF83E600E938DF8BA
:1026940046008DF87C008DF87D008DF87E00109347
:1026A4008DF84C108DF84D108DF84E1012938DF856
:1026B40054208DF855208DF8562014938DF85CC065
:1026C4008DF85DC08DF85EC016938DF864E08DF8CA
:1026D40065E08DF866E018938DF86C708DF86D7078
:1026E4008DF86E701A938DF874608DF875608DF89E
:1026F40076601C931E938DF884108DF885108DF8E8
:10270400861020938DF8B4008DF8B5008DF8B600CE
:102714008DF88C208DF88D208DF88E2022938DF8E5
:1027240094C08DF895C08DF896C024938DF89CE0E4
:102734008DF89DE08DF89EE026938DF8A4708DF8B9
:10274400A5708DF8A67028938DF8AC608DF8AD60F7
:102754008DF8AE602A932C938DF8BC108DF8BD10C3
:102764008DF8BE102E938DF8C4208DF8C5208DF8F9
:10277400C62030938DF8CCC08DF8EC008DF8ED00B8
:102784008DF8EE00A0688DF8CDC08DF8CEC03293E0
:102794008DF8D4E08DF8D5E08DF8D6E034938DF83B
:1027A400DC708DF8DD708DF8DE7036938DF8E460A2
:1027B4008DF8E5608DF8E66038933A938DF8F4105F
:1027C4008DF8F5108DF8F6103C938DF8FC208DF8FB
:1027D400FD208DF8FE203E93FFF7DAF9A068FFF79D
:1027E4001FFB0028FAD01920FEF732FA002602A8AF
:1027F400FEF786FCBDF80A10BDF80C704840BDF821
:102804000E20A18901327940BDF8083089B292B214
:10281400ADF80E204A40534073409BB2184480B236
:1028240001EB5001ADF808306F6D4B40ADF80A0074
:10283400ADF80C303846FEF763FCC0F30800A0F195
:102844002B03E42BF6D8A046012728F80C0FD5F863
:1028540054904846FEF754FCC0F30800A0F12B0343
:10286400E42BF6D804F10A0E00223EF8023FC31A04
:102874009BB219B20029BCBF5B4219B21B29E6DD29
:1028840001329742F1DC0137042F28F8020FDED120
:102894000027ADF80070ADF80270ADF80470ADF823
:1028A40006700DF1200843466A46A1892046FFF7C9
:1028B40023F91B2F07DD16AB0DF10202E189204637
:1028C400FFF71AF901E00D2F05DD24AB01AA218AD7
:1028D4002046FFF711F90DF1C80A53460DF106021F
:1028E400618A2046FFF708F9A068FFF799FA0028E3
:1028F400FAD00F200137FEF7ABF9462FD1D142466B
:102904002946204616AFFEF72CFC0DF190093A46F5
:1029140029462046FEF725FC4A4629462046FEF76E
:1029240020FC01360520FEF793F91E2E7FF45FAFDD
:1029340006245AF834300AEBC4001B68984714F193
:10294400FF34F6D2062459F8343009EBC4001B686E
:10295400984714F1FF34F6D2062457F8343007EBC5
:10296400C4001B68984714F1FF34F6D2062458F8C3
:10297400343008EBC4001B68984714F1FF34F6D2D6
:1029840040B0BDE8F08700BF603400082DE9F04F87
:1029940005460026B3469DB08068FFF7F9F8EB20A2
:1029A4008DF834006C208DF8350061208DF83600E8
:1029B40085208DF83C0030208DF83D00C1208DF835
:1029C4003E0028208DF84400A5208DF845001920EC
:1029D4008DF84600E3208DF84C0017208DF84D004B
:1029E4002F208DF84E00D4208DF85400F2208DF85D
:1029F400550013208DF8560079208DF85C00A32033
:102A04008DF85D005C208DF85E000E208DF864006A
:102A140064208F4C8DF86500FB200C21BC22EE2332
:102A24008DF8660038208DF82C108DF82D208DF847
:102A34002E300A940C940E941094129414941694B8
:102A440018948DF86C00D8208DF80E3004238DF87E
:102A54006D0006937B2001238DF86E008DF81C30E9
:102A6400A868DC238DF824308DF825308DF82630C5
:102A74001A948DF80C108DF80D2002940894FFF729
:102A840087F84FF47A7301934FF007094FF00A085F
:102A940000277A1C394602AB92B2A868FEF7D1FB34
:102AA40000238DF814308DF815308DF81630FA1C8B
:102AB4001CABB91C043743F8604D92B289B2A868C4
:102AC400BFB2FEF7BEFBB7F5967FE2D102AAA968B2
:102AD40006A8FFF726F8A868FFF7A2F90028FAD09D
:102AE4004620FEF7B5F802277A1C394602AB92B2AB
:102AF400A868FEF7A6FB4FF0000A1CAB7A1EB91EAD
:102B040004378DF814A08DF815A08DF816A092B294
:102B140043F8604D89B2A868BFB2FEF792FBB7F5DF
:102B2400977FE1D1BBF1000F20D11E2102A8FEF74F
:102B3400C4F99DF80C30052B5ED89DF80D30052B9B
:102B44005AD89DF80E30052B56D809F1FF39D145D6
:102B540052DC01360923B6FBF3F303EBC303F61A85
:102B6400F6B24FF007094FF0010B45E01CAAF30041
:102B7400D01810F8442C9DF80C108A429DF80D20B2
:102B840012D110F8437C97420ED110F8427C9DF884
:102B94000E00874208D108F1FF38B8F1000F2BDC92
:102BA4004FF00A08D34627E00AA8034493F804E048
:102BB4005F799879C1EB0E03DBB2132BA7EB020309
:102BC40088BF1431DBB28CBF8DF80C108DF80CE08B
:102BD400132B9DF80E3084BF14328DF80D20A0EB1A
:102BE4000302D2B298BF8DF80D70132A86BF143336
:102BF4008DF80E308DF80E0002AAA96806A8FEF71B
:102C040090FFA868FFF70CF90028FAD03C20FEF7E3
:102C14001FF8019B013B01937FF43AAFA868FEF7CC
:102C2400B7FFA868FFF7FCF80028FAD00520FEF7E4
:102C34000FF808240AA850F8343000EBC4001B68CD
:102C4400984714F1FF34F5D21DB0BDE8F08F00BFF2
:102C5400603400082DE9F043044697B08068FEF71D
:102C640097FF9E228DF81420F7228DF8152002225A
:102C74008DF81620F4228DF81C2039228DF81D20A1
:102C8400FF228DF81E20DC228DF824208DF82520CB
:102C94008DF82620F9228DF82C2081228DF82D2004
:102CA4001E228DF82E2024228DF83420C7228DF880
:102CB4003520D72203238DF8362023228DF80430C3
:102CC4008DF83C20052390228DF805308DF83D20A9
:102CD400002332228DF806308DF83E20694BFE2207
:102CE40033257E20A3218DF84420E1228DF80C5059
:102CF4008DF80D008DF80E1002930493069308933B
:102D04000A930C930E938DF845201B228DF84620D0
:102D1400BD228DF84C208DF854500A2216AD8DF842
:102D24004D2045F8083D762210938DF84E201293DD
:102D34008DF855008DF856102B464FF4967240F2DC
:102D44002B11A068FEF77DFAA068FFF769F8002848
:102D5400FAD01E20FDF77CFF4FF000081E264FF02E
:102D640001096427052398FBF3F303EB83039845D8
:102D740010D1B9F1000F01D0043606E00A2E03D1B8
:102D8400013FBFB21FB105E0043E4F2E02D989F0C6
:102D94000109642740F22B134FF496711A46A06878
:102DA400FEF70CFF2B464FF4967240F22B11A068ED
:102DB400FEF747FA9DF80530D3B99DF806305A1C42
:102DC400092392FBF3F303EBC303D31A01AA8DF88F
:102DD400063002EBC303197A5A7A04339B798DF8CF
:102DE40054108DF8563005238DF855208DF8053094
:102DF4009DF80430BBB99DF805300322013BDBB2DA
:102E04008DF80530013B8DF80420032B0BD8DFE847
:102E140003F006060402282102E01E2100E014212A
:102E24002846FEF74AF89DF80430013B8DF804303B
:102E3400A068FEF7F5FF0028FAD0304608F1010833
:102E4400FDF706FFB8F5486F8CD1A068FEF7A0FE29
:102E5400A068FEF7E5FF0028FAD00220FDF7F8FE8F
:102E6400002401AB23445B6C04F1440001AA1B68F9
:102E74001044083C984714F1480FF2D117B0BDE84C
:102E8400F08300BF603400082DE9F043044699B094
:102E94008068FEF77DFE9E208DF81C00F7208DF8DB
:102EA4001D0002208DF81E00F4208DF82400392026
:102EB4008DF82500FF208DF82600F9208DF83400C8
:102EC40081208DF835001E208DF8360024208DF8E1
:102ED4003C00C7208DF83D00D7208DF83E0023200C
:102EE40003238DF8440090208DF80C308DF84500B4
:102EF400062332208E4E8DF80D308DF846000023C7
:102F0400FE20DC2733217E228DF80E308DF84C0014
:102F1400A323E1208DF814108DF815208DF81630B8
:102F24000496069608968DF82C708DF82D708DF801
:102F34002E700A960C960E9610968DF84D001B2056
:102F44008DF84E00BD2018AD8DF854000A2045F8C8
:102F5400086D8DF8550076208DF856008DF85C10BC
:102F64008DF85D208DF85E3096222B469521A06861
:102F740012961496FEF765F92B4698229721A068BD
:102F8400FEF75FF918AB43F85C6D97229621A068B1
:102F94008DF808708DF809708DF80A70FEF751F9F4
:102FA400A068FEF73DFF0028FAD01E20FDF750FE72
:102FB4004FF000081E264FF001096427052398FBF3
:102FC400F3F303EB8303984510D1B9F1000F01D05B
:102FD400043606E00A2E03D1013FBFB21FB105E05B
:102FE400043E4F2E02D989F00109642793239522C8
:102FF4009621A068FEF7E2FD40F27E32A368D3F882
:103004001017885C1144013AB2F5E27FC870F6D11A
:10301400D3F81027D3F81417A068891AB1F5E47F00
:10302400C4BF02F5E471C3F81417D3F81817D8BF56
:10303400C3F81427891AB1F5607F9CBF02F281326C
:10304400C3F8182795212B469622FEF7FAF82B464B
:1030540098229721A068FEF7F4F89DF80D30D3B9B3
:103064009DF80E305A1C092392FBF3F303EBC303C0
:10307400D31A03AA8DF80E3002EBC303197A5A7AD5
:1030840004339B798DF85C108DF85E3006238DF83F
:103094005D208DF80D309DF80C30D3B99DF80D30BE
:1030A4000322013BDBB28DF80D30013B8DF80C207F
:1030B400042B0ED8DFE803F00907070503002821D5
:1030C40004E01E2102E0142100E00F212846FDF750
:1030D400F4FE9DF80C30013B8DF80C30A068FEF72F
:1030E4009FFE0028FAD0304608F10108FDF7B0FD34
:1030F400B8F5616F7FF462AFA068FEF749FDA06880
:10310400FEF78EFE0028FAD00220FDF7A1FD002470
:1031140003AB23445B6C04F1440003AA1B68104412
:10312400083C984714F1480FF2D119B0BDE8F08378
:103134006034000810B5044609B9136800E00A4B6E
:10314400236011B953F8283C00E00023234409B953
:10315400526800E0044A1A60CB0703D52C212046AC
:1031640000F0E2F8204610BD3C35000800220221A0
:10317400FFF7E0BF036853F80C3C1844F6E710B5BA
:103184000446FFF7F3FF20462C2100F0CDF820463B
:1031940010BD036853F80C3C1844F0E70A460021BC
:1031A400FFF7C8BF414B42495A0102F1085202F1EC
:1031B400180008603F4908320A605A0102F10852B7
:1031C4003D4902F1380008603C4928320A605A013E
:1031D40002F108523A4902F158000860394948326C
:1031E4000A605A0102F10852374902F17800086076
:1031F400364968320A605A0102F10852344902F130
:1032040098000860334988320A605A0102F1085272
:10321400314902F1B80008603049A8320A605A0105
:1032240002F108522E4902F1D80008602D49C83233
:103234000A605A0102F108522B4902F1F8000860B1
:103244002A49E8320A605A0102F10852284902F573
:103254008C700860274902F584720A605A0102F1F1
:103264000852254902F59C700860244902F59472BD
:103274000A605A0102F10852214902F5AC70086053
:10328400204902F5A4725B010A6003F108531E4A47
:1032940003F5BC7111601D4A03F5B47313601C4B34
:1032A4001C4A1A6000225A629A6270473C09002044
:1032B400F808002058090020D8080020D40800206D
:1032C400D0080020CC080020600900205C09002000
:1032D400F4080020F0080020EC080020E808002092
:1032E400E4080020E0080020DC0800202809002071
:1032F400500900204C0900204809002054090020EE
:103304003809002034090020300900202C0900204D
:10331400FC0800203C35000808B50248FFF726FFEA
:1033240008BD00BFFC08002000F000B800F000B8A1
:10333400024B0146186800F003B800BF800000206B
:1033440038B50546002944D051F8043C0C1F002B25
:10335400B8BFE41800F040F81E4A1368114613B9C8
:103364006360146030E0A3420DD92268A018834240
:1033740001BF18685B681218226063600C6023E068
:10338400A24203D813465A68002AF9D118681918BA
:10339400A1420BD12168014458188242196013D10B
:1033A40010685268014419605A600DE002D90C2378
:1033B4002B6009E021686018824201BF10685268DE
:1033C4000918216062605C602846BDE8384000F05E
:1033D40004B838BD64090020704770472E2E2F733F
:1033E400797374656D2F7372632F73746D333266E2
:1033F400312D7374647065726970682F73746D33E2
:1034040032663130785F6770696F2E63002E2E2F1D
:1034140073797374656D2F7372632F73746D3332A4
:1034240066312D7374647065726970682F73746D7E
:103434003332663130785F7263632E6300000000BC
:1034440000000000000000003107000843070008E6
:10345400FD0A000800000000000000003307000817
:10346400350700080000000000000000790C000887
:10347400BD0C00087D0C0008CD0C00080000000005
:1034840000000000ED0D00085D0E0008B91E0008E4
:103494000000000000000000EB0D00086B0E0008A7
:1034A400E12000080000000000000000E90D000811
:1034B400790E00081124000800000000000000003C
:1034C400E70D0008870E000825260008000000000C
:1034D40000000000E50D0008950E00089129000881
:1034E4000000000000000000E30D0008A30E000827
:1034F400592C00080000000000000000E10D000845
:10350400B10E00088D2E00083C3500083C3500083B
:1035140000000000000000000000000000000000A7
:103524000000000000000000000000000000000097
:103534000000000000000000713100088331000821
:10354400EF0D00082F0E0008950D0008070E000867
:083554000F0E0008C10D000874
:10355C00785634128C00002000000000000000009F
:10356C00000000000102030406070809006CDC02DD
:10357C00000000000000000000000000000000003F
:10358C00000000000000000000000000000000002F
:10359C00000000000000000000000000000000001F
:1035AC00000000000000000000000000000000000F
:1035BC0000000000000000000000000000000000FF
:1035CC0000000000000000000000000000000000EF
:0835DC00200000203254769813
:040000050800010DE1
:00000001FF
